:020000040800F2
:1000000060060020190200082102000823020008EF
:10001000250200082702000829020008000000004D
:100020000000000000000000000000002B0200089B
:100030002D020008000000002F0200083102000815
:1000400033020008330200083302000833020008BC
:1000500033020008330200083302000833020008AC
:10006000330200083302000833020008330200089C
:10007000330200083302000833020008330200088C
:1000800033020008330200083302000800000000B9
:100090000000000000000000000000003302000823
:1000A000330200083302000833020008330200085C
:1000B000330200083302000833020008330200084C
:1000C000330200083302000833020008330200083C
:1000D0003302000833020008330200080000000069
:1000E0003302000833020008330200080000000059
:1000F00000000000000000000000000033020008C3
:100100000000000033020008330200083302000838
:1001100000000000000000000000000000000000DF
:1001200033020008330200083302000833020008DB
:100130003302000800000000000000000000000082
:100140000000000000000000000000003302000872
:1001500033020008330200083302000833020008AB
:100160003302000833020008000000000000000015
:10017000000000000000000000000000000000007F
:100180000000000033020008000000000000000032
:100190003302000800F002F800F02EF80AA090E800
:1001A000000C82448344AAF10107DA4501D100F032
:1001B00023F8AFF2090EBAE80F0013F0010F18BFD1
:1001C000FB1A43F001031847F40100000402000089
:1001D0000023002400250026103A28BF78C1FBD850
:1001E000520728BF30C148BF0B6070471FB500F0F1
:1001F000DFF81FBD10B510BD00F031F81146FFF754
:10020000F5FF00F0A5F800F04FF803B4FFF7F2FF98
:1002100003BC00F057F80000094880470948004730
:10022000FEE7FEE7FEE7FEE7FEE7FEE7FEE7FEE7A6
:10023000FEE7FEE704480549054A064B7047000003
:10024000D50200089501000860000020600600202B
:1002500060020020600200207047704770477546BA
:1002600000F02CF8AE4605006946534620F0070022
:10027000854618B020B5FFF7DDFFBDE820404FF000
:1002800000064FF000074FF000084FF0000B21F080
:100290000701AC46ACE8C009ACE8C009ACE8C0094D
:1002A000ACE8C0098D46704710B50446AFF3008036
:1002B0002046BDE81040FFF7A8BF00000048704787
:1002C0000000002001491820ABBEFEE72600020016
:1002D000704700001448006840F47000124908603C
:1002E0001248006840F001001049086000200F49E2
:1002F000083108600D4800680D4908400B49086046
:100300000C48091D0860081F006820F48020091FA0
:100310000860002005490C3108604FF00060024978
:10032000803908607047000088ED00E00038024026
:10033000FFFFF6FE1030002407E0002100E0491C1A
:1003400040F67B429142FADB401E0028F5DC704704
:100350001548006840F00100134908601348006820
:1003600020F44060114908600846006840F4A0602D
:10037000086017E00D48406940F010000B494861E3
:100380000846406940F020004861C820FFF7D4FFCC
:100390000648406920F02000044948614FF42F705E
:1003A000FFF7CAFFE6E700003038024000000240D5
:1003B0004FF04070E1EE100A70470000CC030008D7
:0C03C0000000002060060000D0010008D2
:0400000508000219D4
:00000001FF
